{
	"contracts/Base.sol": {
		"BaseStore": {
			"abi": [
				{
					"inputs": [],
					"name": "applePrice",
					"outputs": [
						{
							"internalType": "uint256",
							"name": "",
							"type": "uint256"
						}
					],
					"stateMutability": "view",
					"type": "function"
				},
				{
					"inputs": [
						{
							"internalType": "string",
							"name": "_item",
							"type": "string"
						}
					],
					"name": "getPrice",
					"outputs": [
						{
							"internalType": "uint256",
							"name": "",
							"type": "uint256"
						}
					],
					"stateMutability": "view",
					"type": "function"
				},
				{
					"inputs": [],
					"name": "mangoPrice",
					"outputs": [
						{
							"internalType": "uint256",
							"name": "",
							"type": "uint256"
						}
					],
					"stateMutability": "view",
					"type": "function"
				},
				{
					"inputs": [],
					"name": "orangePrice",
					"outputs": [
						{
							"internalType": "uint256",
							"name": "",
							"type": "uint256"
						}
					],
					"stateMutability": "view",
					"type": "function"
				}
			],
			"devdoc": {
				"kind": "dev",
				"methods": {},
				"version": 1
			},
			"evm": {
				"assembly": "    /* \"contracts/Base.sol\":61:698  contract BaseStore {... */\n  mstore(0x40, 0x80)\n    /* \"contracts/Base.sol\":115:118  150 */\n  0x96\n    /* \"contracts/Base.sol\":87:118  uint256 public mangoPrice = 150 */\n  0x00\n  sstore\n    /* \"contracts/Base.sol\":154:156  50 */\n  0x32\n    /* \"contracts/Base.sol\":125:156  uint256 public orangePrice = 50 */\n  0x01\n  sstore\n    /* \"contracts/Base.sol\":191:194  300 */\n  0x012c\n    /* \"contracts/Base.sol\":163:194  uint256 public applePrice = 300 */\n  0x02\n  sstore\n    /* \"contracts/Base.sol\":61:698  contract BaseStore {... */\n  callvalue\n  dup1\n  iszero\n  tag_1\n  jumpi\n  0x00\n  dup1\n  revert\ntag_1:\n  pop\n  dataSize(sub_0)\n  dup1\n  dataOffset(sub_0)\n  0x00\n  codecopy\n  0x00\n  return\nstop\n\nsub_0: assembly {\n        /* \"contracts/Base.sol\":61:698  contract BaseStore {... */\n      mstore(0x40, 0x80)\n      callvalue\n      dup1\n      iszero\n      tag_1\n      jumpi\n      0x00\n      dup1\n      revert\n    tag_1:\n      pop\n      jumpi(tag_2, lt(calldatasize, 0x04))\n      shr(0xe0, calldataload(0x00))\n      dup1\n      0x524f3889\n      eq\n      tag_3\n      jumpi\n      dup1\n      0x5fb7b0d9\n      eq\n      tag_4\n      jumpi\n      dup1\n      0xb4e9f6f3\n      eq\n      tag_5\n      jumpi\n      dup1\n      0xcb0ec742\n      eq\n      tag_6\n      jumpi\n    tag_2:\n      0x00\n      dup1\n      revert\n        /* \"contracts/Base.sol\":203:695  function getPrice(string memory _item) public view returns(uint256){... */\n    tag_3:\n      tag_7\n      0x04\n      dup1\n      calldatasize\n      sub\n      dup2\n      add\n      swap1\n      tag_8\n      swap2\n      swap1\n      tag_9\n      jump\t// in\n    tag_8:\n      tag_10\n      jump\t// in\n    tag_7:\n      mload(0x40)\n      tag_11\n      swap2\n      swap1\n      tag_12\n      jump\t// in\n    tag_11:\n      mload(0x40)\n      dup1\n      swap2\n      sub\n      swap1\n      return\n        /* \"contracts/Base.sol\":163:194  uint256 public applePrice = 300 */\n    tag_4:\n      tag_13\n      tag_14\n      jump\t// in\n    tag_13:\n      mload(0x40)\n      tag_15\n      swap2\n      swap1\n      tag_12\n      jump\t// in\n    tag_15:\n      mload(0x40)\n      dup1\n      swap2\n      sub\n      swap1\n      return\n        /* \"contracts/Base.sol\":125:156  uint256 public orangePrice = 50 */\n    tag_5:\n      tag_16\n      tag_17\n      jump\t// in\n    tag_16:\n      mload(0x40)\n      tag_18\n      swap2\n      swap1\n      tag_12\n      jump\t// in\n    tag_18:\n      mload(0x40)\n      dup1\n      swap2\n      sub\n      swap1\n      return\n        /* \"contracts/Base.sol\":87:118  uint256 public mangoPrice = 150 */\n    tag_6:\n      tag_19\n      tag_20\n      jump\t// in\n    tag_19:\n      mload(0x40)\n      tag_21\n      swap2\n      swap1\n      tag_12\n      jump\t// in\n    tag_21:\n      mload(0x40)\n      dup1\n      swap2\n      sub\n      swap1\n      return\n        /* \"contracts/Base.sol\":203:695  function getPrice(string memory _item) public view returns(uint256){... */\n    tag_10:\n        /* \"contracts/Base.sol\":262:269  uint256 */\n      0x00\n        /* \"contracts/Base.sol\":334:359  abi.encodePacked(\"Mango\") */\n      add(0x20, mload(0x40))\n      tag_23\n      swap1\n      tag_24\n      jump\t// in\n    tag_23:\n      mload(0x40)\n      0x20\n      dup2\n      dup4\n      sub\n      sub\n      dup2\n      mstore\n      swap1\n      0x40\n      mstore\n        /* \"contracts/Base.sol\":324:360  keccak256(abi.encodePacked(\"Mango\")) */\n      dup1\n      mload\n      swap1\n      0x20\n      add\n      keccak256\n        /* \"contracts/Base.sol\":313:318  _item */\n      dup3\n        /* \"contracts/Base.sol\":296:319  abi.encodePacked(_item) */\n      add(0x20, mload(0x40))\n      tag_25\n      swap2\n      swap1\n      tag_26\n      jump\t// in\n    tag_25:\n      mload(0x40)\n      0x20\n      dup2\n      dup4\n      sub\n      sub\n      dup2\n      mstore\n      swap1\n      0x40\n      mstore\n        /* \"contracts/Base.sol\":286:320  keccak256(abi.encodePacked(_item)) */\n      dup1\n      mload\n      swap1\n      0x20\n      add\n      keccak256\n        /* \"contracts/Base.sol\":286:360  keccak256(abi.encodePacked(_item)) == keccak256(abi.encodePacked(\"Mango\")) */\n      sub\n        /* \"contracts/Base.sol\":282:668  if (keccak256(abi.encodePacked(_item)) == keccak256(abi.encodePacked(\"Mango\"))) {... */\n      tag_27\n      jumpi\n        /* \"contracts/Base.sol\":384:394  mangoPrice */\n      sload(0x00)\n        /* \"contracts/Base.sol\":377:394  return mangoPrice */\n      swap1\n      pop\n      jump(tag_22)\n        /* \"contracts/Base.sol\":282:668  if (keccak256(abi.encodePacked(_item)) == keccak256(abi.encodePacked(\"Mango\"))) {... */\n    tag_27:\n        /* \"contracts/Base.sol\":464:490  abi.encodePacked(\"Orange\") */\n      add(0x20, mload(0x40))\n      tag_29\n      swap1\n      tag_30\n      jump\t// in\n    tag_29:\n      mload(0x40)\n      0x20\n      dup2\n      dup4\n      sub\n      sub\n      dup2\n      mstore\n      swap1\n      0x40\n      mstore\n        /* \"contracts/Base.sol\":454:491  keccak256(abi.encodePacked(\"Orange\")) */\n      dup1\n      mload\n      swap1\n      0x20\n      add\n      keccak256\n        /* \"contracts/Base.sol\":443:448  _item */\n      dup3\n        /* \"contracts/Base.sol\":426:449  abi.encodePacked(_item) */\n      add(0x20, mload(0x40))\n      tag_31\n      swap2\n      swap1\n      tag_26\n      jump\t// in\n    tag_31:\n      mload(0x40)\n      0x20\n      dup2\n      dup4\n      sub\n      sub\n      dup2\n      mstore\n      swap1\n      0x40\n      mstore\n        /* \"contracts/Base.sol\":416:450  keccak256(abi.encodePacked(_item)) */\n      dup1\n      mload\n      swap1\n      0x20\n      add\n      keccak256\n        /* \"contracts/Base.sol\":416:491  keccak256(abi.encodePacked(_item)) == keccak256(abi.encodePacked(\"Orange\")) */\n      sub\n        /* \"contracts/Base.sol\":412:668  if (keccak256(abi.encodePacked(_item)) == keccak256(abi.encodePacked(\"Orange\"))) {... */\n      tag_32\n      jumpi\n        /* \"contracts/Base.sol\":515:526  orangePrice */\n      sload(0x01)\n        /* \"contracts/Base.sol\":508:526  return orangePrice */\n      swap1\n      pop\n      jump(tag_22)\n        /* \"contracts/Base.sol\":412:668  if (keccak256(abi.encodePacked(_item)) == keccak256(abi.encodePacked(\"Orange\"))) {... */\n    tag_32:\n        /* \"contracts/Base.sol\":596:621  abi.encodePacked(\"Apple\") */\n      add(0x20, mload(0x40))\n      tag_34\n      swap1\n      tag_35\n      jump\t// in\n    tag_34:\n      mload(0x40)\n      0x20\n      dup2\n      dup4\n      sub\n      sub\n      dup2\n      mstore\n      swap1\n      0x40\n      mstore\n        /* \"contracts/Base.sol\":586:622  keccak256(abi.encodePacked(\"Apple\")) */\n      dup1\n      mload\n      swap1\n      0x20\n      add\n      keccak256\n        /* \"contracts/Base.sol\":575:580  _item */\n      dup3\n        /* \"contracts/Base.sol\":558:581  abi.encodePacked(_item) */\n      add(0x20, mload(0x40))\n      tag_36\n      swap2\n      swap1\n      tag_26\n      jump\t// in\n    tag_36:\n      mload(0x40)\n      0x20\n      dup2\n      dup4\n      sub\n      sub\n      dup2\n      mstore\n      swap1\n      0x40\n      mstore\n        /* \"contracts/Base.sol\":548:582  keccak256(abi.encodePacked(_item)) */\n      dup1\n      mload\n      swap1\n      0x20\n      add\n      keccak256\n        /* \"contracts/Base.sol\":548:622  keccak256(abi.encodePacked(_item)) == keccak256(abi.encodePacked(\"Apple\")) */\n      sub\n        /* \"contracts/Base.sol\":544:668  if (keccak256(abi.encodePacked(_item)) == keccak256(abi.encodePacked(\"Apple\"))) {... */\n      tag_37\n      jumpi\n        /* \"contracts/Base.sol\":646:656  applePrice */\n      sload(0x02)\n        /* \"contracts/Base.sol\":639:656  return applePrice */\n      swap1\n      pop\n      jump(tag_22)\n        /* \"contracts/Base.sol\":544:668  if (keccak256(abi.encodePacked(_item)) == keccak256(abi.encodePacked(\"Apple\"))) {... */\n    tag_37:\n        /* \"contracts/Base.sol\":685:686  0 */\n      0x00\n        /* \"contracts/Base.sol\":678:686  return 0 */\n      swap1\n      pop\n        /* \"contracts/Base.sol\":203:695  function getPrice(string memory _item) public view returns(uint256){... */\n    tag_22:\n      swap2\n      swap1\n      pop\n      jump\t// out\n        /* \"contracts/Base.sol\":163:194  uint256 public applePrice = 300 */\n    tag_14:\n      sload(0x02)\n      dup2\n      jump\t// out\n        /* \"contracts/Base.sol\":125:156  uint256 public orangePrice = 50 */\n    tag_17:\n      sload(0x01)\n      dup2\n      jump\t// out\n        /* \"contracts/Base.sol\":87:118  uint256 public mangoPrice = 150 */\n    tag_20:\n      sload(0x00)\n      dup2\n      jump\t// out\n        /* \"#utility.yul\":7:82   */\n    tag_38:\n        /* \"#utility.yul\":40:46   */\n      0x00\n        /* \"#utility.yul\":73:75   */\n      0x40\n        /* \"#utility.yul\":67:76   */\n      mload\n        /* \"#utility.yul\":57:76   */\n      swap1\n      pop\n        /* \"#utility.yul\":7:82   */\n      swap1\n      jump\t// out\n        /* \"#utility.yul\":88:205   */\n    tag_39:\n        /* \"#utility.yul\":197:198   */\n      0x00\n        /* \"#utility.yul\":194:195   */\n      dup1\n        /* \"#utility.yul\":187:199   */\n      revert\n        /* \"#utility.yul\":211:328   */\n    tag_40:\n        /* \"#utility.yul\":320:321   */\n      0x00\n        /* \"#utility.yul\":317:318   */\n      dup1\n        /* \"#utility.yul\":310:322   */\n      revert\n        /* \"#utility.yul\":334:451   */\n    tag_41:\n        /* \"#utility.yul\":443:444   */\n      0x00\n        /* \"#utility.yul\":440:441   */\n      dup1\n        /* \"#utility.yul\":433:445   */\n      revert\n        /* \"#utility.yul\":457:574   */\n    tag_42:\n        /* \"#utility.yul\":566:567   */\n      0x00\n        /* \"#utility.yul\":563:564   */\n      dup1\n        /* \"#utility.yul\":556:568   */\n      revert\n        /* \"#utility.yul\":580:682   */\n    tag_43:\n        /* \"#utility.yul\":621:627   */\n      0x00\n        /* \"#utility.yul\":672:674   */\n      0x1f\n        /* \"#utility.yul\":668:675   */\n      not\n        /* \"#utility.yul\":663:665   */\n      0x1f\n        /* \"#utility.yul\":656:661   */\n      dup4\n        /* \"#utility.yul\":652:666   */\n      add\n        /* \"#utility.yul\":648:676   */\n      and\n        /* \"#utility.yul\":638:676   */\n      swap1\n      pop\n        /* \"#utility.yul\":580:682   */\n      swap2\n      swap1\n      pop\n      jump\t// out\n        /* \"#utility.yul\":688:868   */\n    tag_44:\n        /* \"#utility.yul\":736:813   */\n      0x4e487b7100000000000000000000000000000000000000000000000000000000\n        /* \"#utility.yul\":733:734   */\n      0x00\n        /* \"#utility.yul\":726:814   */\n      mstore\n        /* \"#utility.yul\":833:837   */\n      0x41\n        /* \"#utility.yul\":830:831   */\n      0x04\n        /* \"#utility.yul\":823:838   */\n      mstore\n        /* \"#utility.yul\":857:861   */\n      0x24\n        /* \"#utility.yul\":854:855   */\n      0x00\n        /* \"#utility.yul\":847:862   */\n      revert\n        /* \"#utility.yul\":874:1155   */\n    tag_45:\n        /* \"#utility.yul\":957:984   */\n      tag_72\n        /* \"#utility.yul\":979:983   */\n      dup3\n        /* \"#utility.yul\":957:984   */\n      tag_43\n      jump\t// in\n    tag_72:\n        /* \"#utility.yul\":949:955   */\n      dup2\n        /* \"#utility.yul\":945:985   */\n      add\n        /* \"#utility.yul\":1087:1093   */\n      dup2\n        /* \"#utility.yul\":1075:1085   */\n      dup2\n        /* \"#utility.yul\":1072:1094   */\n      lt\n        /* \"#utility.yul\":1051:1069   */\n      0xffffffffffffffff\n        /* \"#utility.yul\":1039:1049   */\n      dup3\n        /* \"#utility.yul\":1036:1070   */\n      gt\n        /* \"#utility.yul\":1033:1095   */\n      or\n        /* \"#utility.yul\":1030:1118   */\n      iszero\n      tag_73\n      jumpi\n        /* \"#utility.yul\":1098:1116   */\n      tag_74\n      tag_44\n      jump\t// in\n    tag_74:\n        /* \"#utility.yul\":1030:1118   */\n    tag_73:\n        /* \"#utility.yul\":1138:1148   */\n      dup1\n        /* \"#utility.yul\":1134:1136   */\n      0x40\n        /* \"#utility.yul\":1127:1149   */\n      mstore\n        /* \"#utility.yul\":917:1155   */\n      pop\n        /* \"#utility.yul\":874:1155   */\n      pop\n      pop\n      jump\t// out\n        /* \"#utility.yul\":1161:1290   */\n    tag_46:\n        /* \"#utility.yul\":1195:1201   */\n      0x00\n        /* \"#utility.yul\":1222:1242   */\n      tag_76\n      tag_38\n      jump\t// in\n    tag_76:\n        /* \"#utility.yul\":1212:1242   */\n      swap1\n      pop\n        /* \"#utility.yul\":1251:1284   */\n      tag_77\n        /* \"#utility.yul\":1279:1283   */\n      dup3\n        /* \"#utility.yul\":1271:1277   */\n      dup3\n        /* \"#utility.yul\":1251:1284   */\n      tag_45\n      jump\t// in\n    tag_77:\n        /* \"#utility.yul\":1161:1290   */\n      swap2\n      swap1\n      pop\n      jump\t// out\n        /* \"#utility.yul\":1296:1604   */\n    tag_47:\n        /* \"#utility.yul\":1358:1362   */\n      0x00\n        /* \"#utility.yul\":1448:1466   */\n      0xffffffffffffffff\n        /* \"#utility.yul\":1440:1446   */\n      dup3\n        /* \"#utility.yul\":1437:1467   */\n      gt\n        /* \"#utility.yul\":1434:1490   */\n      iszero\n      tag_79\n      jumpi\n        /* \"#utility.yul\":1470:1488   */\n      tag_80\n      tag_44\n      jump\t// in\n    tag_80:\n        /* \"#utility.yul\":1434:1490   */\n    tag_79:\n        /* \"#utility.yul\":1508:1537   */\n      tag_81\n        /* \"#utility.yul\":1530:1536   */\n      dup3\n        /* \"#utility.yul\":1508:1537   */\n      tag_43\n      jump\t// in\n    tag_81:\n        /* \"#utility.yul\":1500:1537   */\n      swap1\n      pop\n        /* \"#utility.yul\":1592:1596   */\n      0x20\n        /* \"#utility.yul\":1586:1590   */\n      dup2\n        /* \"#utility.yul\":1582:1597   */\n      add\n        /* \"#utility.yul\":1574:1597   */\n      swap1\n      pop\n        /* \"#utility.yul\":1296:1604   */\n      swap2\n      swap1\n      pop\n      jump\t// out\n        /* \"#utility.yul\":1610:1758   */\n    tag_48:\n        /* \"#utility.yul\":1708:1714   */\n      dup3\n        /* \"#utility.yul\":1703:1706   */\n      dup2\n        /* \"#utility.yul\":1698:1701   */\n      dup4\n        /* \"#utility.yul\":1685:1715   */\n      calldatacopy\n        /* \"#utility.yul\":1749:1750   */\n      0x00\n        /* \"#utility.yul\":1740:1746   */\n      dup4\n        /* \"#utility.yul\":1735:1738   */\n      dup4\n        /* \"#utility.yul\":1731:1747   */\n      add\n        /* \"#utility.yul\":1724:1751   */\n      mstore\n        /* \"#utility.yul\":1610:1758   */\n      pop\n      pop\n      pop\n      jump\t// out\n        /* \"#utility.yul\":1764:2189   */\n    tag_49:\n        /* \"#utility.yul\":1842:1847   */\n      0x00\n        /* \"#utility.yul\":1867:1933   */\n      tag_84\n        /* \"#utility.yul\":1883:1932   */\n      tag_85\n        /* \"#utility.yul\":1925:1931   */\n      dup5\n        /* \"#utility.yul\":1883:1932   */\n      tag_47\n      jump\t// in\n    tag_85:\n        /* \"#utility.yul\":1867:1933   */\n      tag_46\n      jump\t// in\n    tag_84:\n        /* \"#utility.yul\":1858:1933   */\n      swap1\n      pop\n        /* \"#utility.yul\":1956:1962   */\n      dup3\n        /* \"#utility.yul\":1949:1954   */\n      dup2\n        /* \"#utility.yul\":1942:1963   */\n      mstore\n        /* \"#utility.yul\":1994:1998   */\n      0x20\n        /* \"#utility.yul\":1987:1992   */\n      dup2\n        /* \"#utility.yul\":1983:1999   */\n      add\n        /* \"#utility.yul\":2032:2035   */\n      dup5\n        /* \"#utility.yul\":2023:2029   */\n      dup5\n        /* \"#utility.yul\":2018:2021   */\n      dup5\n        /* \"#utility.yul\":2014:2030   */\n      add\n        /* \"#utility.yul\":2011:2036   */\n      gt\n        /* \"#utility.yul\":2008:2120   */\n      iszero\n      tag_86\n      jumpi\n        /* \"#utility.yul\":2039:2118   */\n      tag_87\n      tag_42\n      jump\t// in\n    tag_87:\n        /* \"#utility.yul\":2008:2120   */\n    tag_86:\n        /* \"#utility.yul\":2129:2183   */\n      tag_88\n        /* \"#utility.yul\":2176:2182   */\n      dup5\n        /* \"#utility.yul\":2171:2174   */\n      dup3\n        /* \"#utility.yul\":2166:2169   */\n      dup6\n        /* \"#utility.yul\":2129:2183   */\n      tag_48\n      jump\t// in\n    tag_88:\n        /* \"#utility.yul\":1848:2189   */\n      pop\n        /* \"#utility.yul\":1764:2189   */\n      swap4\n      swap3\n      pop\n      pop\n      pop\n      jump\t// out\n        /* \"#utility.yul\":2209:2549   */\n    tag_50:\n        /* \"#utility.yul\":2265:2270   */\n      0x00\n        /* \"#utility.yul\":2314:2317   */\n      dup3\n        /* \"#utility.yul\":2307:2311   */\n      0x1f\n        /* \"#utility.yul\":2299:2305   */\n      dup4\n        /* \"#utility.yul\":2295:2312   */\n      add\n        /* \"#utility.yul\":2291:2318   */\n      slt\n        /* \"#utility.yul\":2281:2403   */\n      tag_90\n      jumpi\n        /* \"#utility.yul\":2322:2401   */\n      tag_91\n      tag_41\n      jump\t// in\n    tag_91:\n        /* \"#utility.yul\":2281:2403   */\n    tag_90:\n        /* \"#utility.yul\":2439:2445   */\n      dup2\n        /* \"#utility.yul\":2426:2446   */\n      calldataload\n        /* \"#utility.yul\":2464:2543   */\n      tag_92\n        /* \"#utility.yul\":2539:2542   */\n      dup5\n        /* \"#utility.yul\":2531:2537   */\n      dup3\n        /* \"#utility.yul\":2524:2528   */\n      0x20\n        /* \"#utility.yul\":2516:2522   */\n      dup7\n        /* \"#utility.yul\":2512:2529   */\n      add\n        /* \"#utility.yul\":2464:2543   */\n      tag_49\n      jump\t// in\n    tag_92:\n        /* \"#utility.yul\":2455:2543   */\n      swap2\n      pop\n        /* \"#utility.yul\":2271:2549   */\n      pop\n        /* \"#utility.yul\":2209:2549   */\n      swap3\n      swap2\n      pop\n      pop\n      jump\t// out\n        /* \"#utility.yul\":2555:3064   */\n    tag_9:\n        /* \"#utility.yul\":2624:2630   */\n      0x00\n        /* \"#utility.yul\":2673:2675   */\n      0x20\n        /* \"#utility.yul\":2661:2670   */\n      dup3\n        /* \"#utility.yul\":2652:2659   */\n      dup5\n        /* \"#utility.yul\":2648:2671   */\n      sub\n        /* \"#utility.yul\":2644:2676   */\n      slt\n        /* \"#utility.yul\":2641:2760   */\n      iszero\n      tag_94\n      jumpi\n        /* \"#utility.yul\":2679:2758   */\n      tag_95\n      tag_39\n      jump\t// in\n    tag_95:\n        /* \"#utility.yul\":2641:2760   */\n    tag_94:\n        /* \"#utility.yul\":2827:2828   */\n      0x00\n        /* \"#utility.yul\":2816:2825   */\n      dup3\n        /* \"#utility.yul\":2812:2829   */\n      add\n        /* \"#utility.yul\":2799:2830   */\n      calldataload\n        /* \"#utility.yul\":2857:2875   */\n      0xffffffffffffffff\n        /* \"#utility.yul\":2849:2855   */\n      dup2\n        /* \"#utility.yul\":2846:2876   */\n      gt\n        /* \"#utility.yul\":2843:2960   */\n      iszero\n      tag_96\n      jumpi\n        /* \"#utility.yul\":2879:2958   */\n      tag_97\n      tag_40\n      jump\t// in\n    tag_97:\n        /* \"#utility.yul\":2843:2960   */\n    tag_96:\n        /* \"#utility.yul\":2984:3047   */\n      tag_98\n        /* \"#utility.yul\":3039:3046   */\n      dup5\n        /* \"#utility.yul\":3030:3036   */\n      dup3\n        /* \"#utility.yul\":3019:3028   */\n      dup6\n        /* \"#utility.yul\":3015:3037   */\n      add\n        /* \"#utility.yul\":2984:3047   */\n      tag_50\n      jump\t// in\n    tag_98:\n        /* \"#utility.yul\":2974:3047   */\n      swap2\n      pop\n        /* \"#utility.yul\":2770:3057   */\n      pop\n        /* \"#utility.yul\":2555:3064   */\n      swap3\n      swap2\n      pop\n      pop\n      jump\t// out\n        /* \"#utility.yul\":3070:3147   */\n    tag_51:\n        /* \"#utility.yul\":3107:3114   */\n      0x00\n        /* \"#utility.yul\":3136:3141   */\n      dup2\n        /* \"#utility.yul\":3125:3141   */\n      swap1\n      pop\n        /* \"#utility.yul\":3070:3147   */\n      swap2\n      swap1\n      pop\n      jump\t// out\n        /* \"#utility.yul\":3153:3271   */\n    tag_52:\n        /* \"#utility.yul\":3240:3264   */\n      tag_101\n        /* \"#utility.yul\":3258:3263   */\n      dup2\n        /* \"#utility.yul\":3240:3264   */\n      tag_51\n      jump\t// in\n    tag_101:\n        /* \"#utility.yul\":3235:3238   */\n      dup3\n        /* \"#utility.yul\":3228:3265   */\n      mstore\n        /* \"#utility.yul\":3153:3271   */\n      pop\n      pop\n      jump\t// out\n        /* \"#utility.yul\":3277:3499   */\n    tag_12:\n        /* \"#utility.yul\":3370:3374   */\n      0x00\n        /* \"#utility.yul\":3408:3410   */\n      0x20\n        /* \"#utility.yul\":3397:3406   */\n      dup3\n        /* \"#utility.yul\":3393:3411   */\n      add\n        /* \"#utility.yul\":3385:3411   */\n      swap1\n      pop\n        /* \"#utility.yul\":3421:3492   */\n      tag_103\n        /* \"#utility.yul\":3489:3490   */\n      0x00\n        /* \"#utility.yul\":3478:3487   */\n      dup4\n        /* \"#utility.yul\":3474:3491   */\n      add\n        /* \"#utility.yul\":3465:3471   */\n      dup5\n        /* \"#utility.yul\":3421:3492   */\n      tag_52\n      jump\t// in\n    tag_103:\n        /* \"#utility.yul\":3277:3499   */\n      swap3\n      swap2\n      pop\n      pop\n      jump\t// out\n        /* \"#utility.yul\":3505:3653   */\n    tag_53:\n        /* \"#utility.yul\":3607:3618   */\n      0x00\n        /* \"#utility.yul\":3644:3647   */\n      dup2\n        /* \"#utility.yul\":3629:3647   */\n      swap1\n      pop\n        /* \"#utility.yul\":3505:3653   */\n      swap3\n      swap2\n      pop\n      pop\n      jump\t// out\n        /* \"#utility.yul\":3659:3814   */\n    tag_54:\n        /* \"#utility.yul\":3799:3806   */\n      0x4d616e676f000000000000000000000000000000000000000000000000000000\n        /* \"#utility.yul\":3795:3796   */\n      0x00\n        /* \"#utility.yul\":3787:3793   */\n      dup3\n        /* \"#utility.yul\":3783:3797   */\n      add\n        /* \"#utility.yul\":3776:3807   */\n      mstore\n        /* \"#utility.yul\":3659:3814   */\n      pop\n      jump\t// out\n        /* \"#utility.yul\":3820:4220   */\n    tag_55:\n        /* \"#utility.yul\":3980:3983   */\n      0x00\n        /* \"#utility.yul\":4001:4085   */\n      tag_107\n        /* \"#utility.yul\":4083:4084   */\n      0x05\n        /* \"#utility.yul\":4078:4081   */\n      dup4\n        /* \"#utility.yul\":4001:4085   */\n      tag_53\n      jump\t// in\n    tag_107:\n        /* \"#utility.yul\":3994:4085   */\n      swap2\n      pop\n        /* \"#utility.yul\":4094:4187   */\n      tag_108\n        /* \"#utility.yul\":4183:4186   */\n      dup3\n        /* \"#utility.yul\":4094:4187   */\n      tag_54\n      jump\t// in\n    tag_108:\n        /* \"#utility.yul\":4212:4213   */\n      0x05\n        /* \"#utility.yul\":4207:4210   */\n      dup3\n        /* \"#utility.yul\":4203:4214   */\n      add\n        /* \"#utility.yul\":4196:4214   */\n      swap1\n      pop\n        /* \"#utility.yul\":3820:4220   */\n      swap2\n      swap1\n      pop\n      jump\t// out\n        /* \"#utility.yul\":4226:4607   */\n    tag_24:\n        /* \"#utility.yul\":4411:4414   */\n      0x00\n        /* \"#utility.yul\":4433:4581   */\n      tag_110\n        /* \"#utility.yul\":4577:4580   */\n      dup3\n        /* \"#utility.yul\":4433:4581   */\n      tag_55\n      jump\t// in\n    tag_110:\n        /* \"#utility.yul\":4426:4581   */\n      swap2\n      pop\n        /* \"#utility.yul\":4598:4601   */\n      dup2\n        /* \"#utility.yul\":4591:4601   */\n      swap1\n      pop\n        /* \"#utility.yul\":4226:4607   */\n      swap2\n      swap1\n      pop\n      jump\t// out\n        /* \"#utility.yul\":4613:4712   */\n    tag_56:\n        /* \"#utility.yul\":4665:4671   */\n      0x00\n        /* \"#utility.yul\":4699:4704   */\n      dup2\n        /* \"#utility.yul\":4693:4705   */\n      mload\n        /* \"#utility.yul\":4683:4705   */\n      swap1\n      pop\n        /* \"#utility.yul\":4613:4712   */\n      swap2\n      swap1\n      pop\n      jump\t// out\n        /* \"#utility.yul\":4718:4857   */\n    tag_57:\n        /* \"#utility.yul\":4807:4813   */\n      dup3\n        /* \"#utility.yul\":4802:4805   */\n      dup2\n        /* \"#utility.yul\":4797:4800   */\n      dup4\n        /* \"#utility.yul\":4791:4814   */\n      mcopy\n        /* \"#utility.yul\":4848:4849   */\n      0x00\n        /* \"#utility.yul\":4839:4845   */\n      dup4\n        /* \"#utility.yul\":4834:4837   */\n      dup4\n        /* \"#utility.yul\":4830:4846   */\n      add\n        /* \"#utility.yul\":4823:4850   */\n      mstore\n        /* \"#utility.yul\":4718:4857   */\n      pop\n      pop\n      pop\n      jump\t// out\n        /* \"#utility.yul\":4863:5253   */\n    tag_58:\n        /* \"#utility.yul\":4969:4972   */\n      0x00\n        /* \"#utility.yul\":4997:5036   */\n      tag_114\n        /* \"#utility.yul\":5030:5035   */\n      dup3\n        /* \"#utility.yul\":4997:5036   */\n      tag_56\n      jump\t// in\n    tag_114:\n        /* \"#utility.yul\":5052:5141   */\n      tag_115\n        /* \"#utility.yul\":5134:5140   */\n      dup2\n        /* \"#utility.yul\":5129:5132   */\n      dup6\n        /* \"#utility.yul\":5052:5141   */\n      tag_53\n      jump\t// in\n    tag_115:\n        /* \"#utility.yul\":5045:5141   */\n      swap4\n      pop\n        /* \"#utility.yul\":5150:5215   */\n      tag_116\n        /* \"#utility.yul\":5208:5214   */\n      dup2\n        /* \"#utility.yul\":5203:5206   */\n      dup6\n        /* \"#utility.yul\":5196:5200   */\n      0x20\n        /* \"#utility.yul\":5189:5194   */\n      dup7\n        /* \"#utility.yul\":5185:5201   */\n      add\n        /* \"#utility.yul\":5150:5215   */\n      tag_57\n      jump\t// in\n    tag_116:\n        /* \"#utility.yul\":5240:5246   */\n      dup1\n        /* \"#utility.yul\":5235:5238   */\n      dup5\n        /* \"#utility.yul\":5231:5247   */\n      add\n        /* \"#utility.yul\":5224:5247   */\n      swap2\n      pop\n        /* \"#utility.yul\":4973:5253   */\n      pop\n        /* \"#utility.yul\":4863:5253   */\n      swap3\n      swap2\n      pop\n      pop\n      jump\t// out\n        /* \"#utility.yul\":5259:5534   */\n    tag_26:\n        /* \"#utility.yul\":5391:5394   */\n      0x00\n        /* \"#utility.yul\":5413:5508   */\n      tag_118\n        /* \"#utility.yul\":5504:5507   */\n      dup3\n        /* \"#utility.yul\":5495:5501   */\n      dup5\n        /* \"#utility.yul\":5413:5508   */\n      tag_58\n      jump\t// in\n    tag_118:\n        /* \"#utility.yul\":5406:5508   */\n      swap2\n      pop\n        /* \"#utility.yul\":5525:5528   */\n      dup2\n        /* \"#utility.yul\":5518:5528   */\n      swap1\n      pop\n        /* \"#utility.yul\":5259:5534   */\n      swap3\n      swap2\n      pop\n      pop\n      jump\t// out\n        /* \"#utility.yul\":5540:5696   */\n    tag_59:\n        /* \"#utility.yul\":5680:5688   */\n      0x4f72616e67650000000000000000000000000000000000000000000000000000\n        /* \"#utility.yul\":5676:5677   */\n      0x00\n        /* \"#utility.yul\":5668:5674   */\n      dup3\n        /* \"#utility.yul\":5664:5678   */\n      add\n        /* \"#utility.yul\":5657:5689   */\n      mstore\n        /* \"#utility.yul\":5540:5696   */\n      pop\n      jump\t// out\n        /* \"#utility.yul\":5702:6102   */\n    tag_60:\n        /* \"#utility.yul\":5862:5865   */\n      0x00\n        /* \"#utility.yul\":5883:5967   */\n      tag_121\n        /* \"#utility.yul\":5965:5966   */\n      0x06\n        /* \"#utility.yul\":5960:5963   */\n      dup4\n        /* \"#utility.yul\":5883:5967   */\n      tag_53\n      jump\t// in\n    tag_121:\n        /* \"#utility.yul\":5876:5967   */\n      swap2\n      pop\n        /* \"#utility.yul\":5976:6069   */\n      tag_122\n        /* \"#utility.yul\":6065:6068   */\n      dup3\n        /* \"#utility.yul\":5976:6069   */\n      tag_59\n      jump\t// in\n    tag_122:\n        /* \"#utility.yul\":6094:6095   */\n      0x06\n        /* \"#utility.yul\":6089:6092   */\n      dup3\n        /* \"#utility.yul\":6085:6096   */\n      add\n        /* \"#utility.yul\":6078:6096   */\n      swap1\n      pop\n        /* \"#utility.yul\":5702:6102   */\n      swap2\n      swap1\n      pop\n      jump\t// out\n        /* \"#utility.yul\":6108:6489   */\n    tag_30:\n        /* \"#utility.yul\":6293:6296   */\n      0x00\n        /* \"#utility.yul\":6315:6463   */\n      tag_124\n        /* \"#utility.yul\":6459:6462   */\n      dup3\n        /* \"#utility.yul\":6315:6463   */\n      tag_60\n      jump\t// in\n    tag_124:\n        /* \"#utility.yul\":6308:6463   */\n      swap2\n      pop\n        /* \"#utility.yul\":6480:6483   */\n      dup2\n        /* \"#utility.yul\":6473:6483   */\n      swap1\n      pop\n        /* \"#utility.yul\":6108:6489   */\n      swap2\n      swap1\n      pop\n      jump\t// out\n        /* \"#utility.yul\":6495:6650   */\n    tag_61:\n        /* \"#utility.yul\":6635:6642   */\n      0x4170706c65000000000000000000000000000000000000000000000000000000\n        /* \"#utility.yul\":6631:6632   */\n      0x00\n        /* \"#utility.yul\":6623:6629   */\n      dup3\n        /* \"#utility.yul\":6619:6633   */\n      add\n        /* \"#utility.yul\":6612:6643   */\n      mstore\n        /* \"#utility.yul\":6495:6650   */\n      pop\n      jump\t// out\n        /* \"#utility.yul\":6656:7056   */\n    tag_62:\n        /* \"#utility.yul\":6816:6819   */\n      0x00\n        /* \"#utility.yul\":6837:6921   */\n      tag_127\n        /* \"#utility.yul\":6919:6920   */\n      0x05\n        /* \"#utility.yul\":6914:6917   */\n      dup4\n        /* \"#utility.yul\":6837:6921   */\n      tag_53\n      jump\t// in\n    tag_127:\n        /* \"#utility.yul\":6830:6921   */\n      swap2\n      pop\n        /* \"#utility.yul\":6930:7023   */\n      tag_128\n        /* \"#utility.yul\":7019:7022   */\n      dup3\n        /* \"#utility.yul\":6930:7023   */\n      tag_61\n      jump\t// in\n    tag_128:\n        /* \"#utility.yul\":7048:7049   */\n      0x05\n        /* \"#utility.yul\":7043:7046   */\n      dup3\n        /* \"#utility.yul\":7039:7050   */\n      add\n        /* \"#utility.yul\":7032:7050   */\n      swap1\n      pop\n        /* \"#utility.yul\":6656:7056   */\n      swap2\n      swap1\n      pop\n      jump\t// out\n        /* \"#utility.yul\":7062:7443   */\n    tag_35:\n        /* \"#utility.yul\":7247:7250   */\n      0x00\n        /* \"#utility.yul\":7269:7417   */\n      tag_130\n        /* \"#utility.yul\":7413:7416   */\n      dup3\n        /* \"#utility.yul\":7269:7417   */\n      tag_62\n      jump\t// in\n    tag_130:\n        /* \"#utility.yul\":7262:7417   */\n      swap2\n      pop\n        /* \"#utility.yul\":7434:7437   */\n      dup2\n        /* \"#utility.yul\":7427:7437   */\n      swap1\n      pop\n        /* \"#utility.yul\":7062:7443   */\n      swap2\n      swap1\n      pop\n      jump\t// out\n\n    auxdata: 0xa2646970667358221220b8897d3f41b3d426665cf21bd342a3eaffb7f87c85ad76ca90acd0b71e8be2fe64736f6c63430008190033\n}\n",
				"bytecode": {
					"linkReferences": {},
					"object": "608060405260965f55603260015561012c600255348015601d575f80fd5b506105808061002b5f395ff3fe608060405234801561000f575f80fd5b506004361061004a575f3560e01c8063524f38891461004e5780635fb7b0d91461007e578063b4e9f6f31461009c578063cb0ec742146100ba575b5f80fd5b61006860048036038101906100639190610350565b6100d8565b60405161007591906103af565b60405180910390f35b6100866101f2565b60405161009391906103af565b60405180910390f35b6100a46101f8565b6040516100b191906103af565b60405180910390f35b6100c26101fe565b6040516100cf91906103af565b60405180910390f35b5f6040516020016100e89061041c565b604051602081830303815290604052805190602001208260405160200161010f9190610478565b6040516020818303038152906040528051906020012003610133575f5490506101ed565b604051602001610142906104d8565b60405160208183030381529060405280519060200120826040516020016101699190610478565b604051602081830303815290604052805190602001200361018e5760015490506101ed565b60405160200161019d90610536565b60405160208183030381529060405280519060200120826040516020016101c49190610478565b60405160208183030381529060405280519060200120036101e95760025490506101ed565b5f90505b919050565b60025481565b60015481565b5f5481565b5f604051905090565b5f80fd5b5f80fd5b5f80fd5b5f80fd5b5f601f19601f8301169050919050565b7f4e487b71000000000000000000000000000000000000000000000000000000005f52604160045260245ffd5b6102628261021c565b810181811067ffffffffffffffff821117156102815761028061022c565b5b80604052505050565b5f610293610203565b905061029f8282610259565b919050565b5f67ffffffffffffffff8211156102be576102bd61022c565b5b6102c78261021c565b9050602081019050919050565b828183375f83830152505050565b5f6102f46102ef846102a4565b61028a565b9050828152602081018484840111156103105761030f610218565b5b61031b8482856102d4565b509392505050565b5f82601f83011261033757610336610214565b5b81356103478482602086016102e2565b91505092915050565b5f602082840312156103655761036461020c565b5b5f82013567ffffffffffffffff81111561038257610381610210565b5b61038e84828501610323565b91505092915050565b5f819050919050565b6103a981610397565b82525050565b5f6020820190506103c25f8301846103a0565b92915050565b5f81905092915050565b7f4d616e676f0000000000000000000000000000000000000000000000000000005f82015250565b5f6104066005836103c8565b9150610411826103d2565b600582019050919050565b5f610426826103fa565b9150819050919050565b5f81519050919050565b8281835e5f83830152505050565b5f61045282610430565b61045c81856103c8565b935061046c81856020860161043a565b80840191505092915050565b5f6104838284610448565b915081905092915050565b7f4f72616e676500000000000000000000000000000000000000000000000000005f82015250565b5f6104c26006836103c8565b91506104cd8261048e565b600682019050919050565b5f6104e2826104b6565b9150819050919050565b7f4170706c650000000000000000000000000000000000000000000000000000005f82015250565b5f6105206005836103c8565b915061052b826104ec565b600582019050919050565b5f61054082610514565b915081905091905056fea2646970667358221220b8897d3f41b3d426665cf21bd342a3eaffb7f87c85ad76ca90acd0b71e8be2fe64736f6c63430008190033",
					"opcodes": "PUSH1 0x80 PUSH1 0x40 MSTORE PUSH1 0x96 PUSH0 SSTORE PUSH1 0x32 PUSH1 0x1 SSTORE PUSH2 0x12C PUSH1 0x2 SSTORE CALLVALUE DUP1 ISZERO PUSH1 0x1D JUMPI PUSH0 DUP1 REVERT JUMPDEST POP PUSH2 0x580 DUP1 PUSH2 0x2B PUSH0 CODECOPY PUSH0 RETURN INVALID PUSH1 0x80 PUSH1 0x40 MSTORE CALLVALUE DUP1 ISZERO PUSH2 0xF JUMPI PUSH0 DUP1 REVERT JUMPDEST POP PUSH1 0x4 CALLDATASIZE LT PUSH2 0x4A JUMPI PUSH0 CALLDATALOAD PUSH1 0xE0 SHR DUP1 PUSH4 0x524F3889 EQ PUSH2 0x4E JUMPI DUP1 PUSH4 0x5FB7B0D9 EQ PUSH2 0x7E JUMPI DUP1 PUSH4 0xB4E9F6F3 EQ PUSH2 0x9C JUMPI DUP1 PUSH4 0xCB0EC742 EQ PUSH2 0xBA JUMPI JUMPDEST PUSH0 DUP1 REVERT JUMPDEST PUSH2 0x68 PUSH1 0x4 DUP1 CALLDATASIZE SUB DUP2 ADD SWAP1 PUSH2 0x63 SWAP2 SWAP1 PUSH2 0x350 JUMP JUMPDEST PUSH2 0xD8 JUMP JUMPDEST PUSH1 0x40 MLOAD PUSH2 0x75 SWAP2 SWAP1 PUSH2 0x3AF JUMP JUMPDEST PUSH1 0x40 MLOAD DUP1 SWAP2 SUB SWAP1 RETURN JUMPDEST PUSH2 0x86 PUSH2 0x1F2 JUMP JUMPDEST PUSH1 0x40 MLOAD PUSH2 0x93 SWAP2 SWAP1 PUSH2 0x3AF JUMP JUMPDEST PUSH1 0x40 MLOAD DUP1 SWAP2 SUB SWAP1 RETURN JUMPDEST PUSH2 0xA4 PUSH2 0x1F8 JUMP JUMPDEST PUSH1 0x40 MLOAD PUSH2 0xB1 SWAP2 SWAP1 PUSH2 0x3AF JUMP JUMPDEST PUSH1 0x40 MLOAD DUP1 SWAP2 SUB SWAP1 RETURN JUMPDEST PUSH2 0xC2 PUSH2 0x1FE JUMP JUMPDEST PUSH1 0x40 MLOAD PUSH2 0xCF SWAP2 SWAP1 PUSH2 0x3AF JUMP JUMPDEST PUSH1 0x40 MLOAD DUP1 SWAP2 SUB SWAP1 RETURN JUMPDEST PUSH0 PUSH1 0x40 MLOAD PUSH1 0x20 ADD PUSH2 0xE8 SWAP1 PUSH2 0x41C JUMP JUMPDEST PUSH1 0x40 MLOAD PUSH1 0x20 DUP2 DUP4 SUB SUB DUP2 MSTORE SWAP1 PUSH1 0x40 MSTORE DUP1 MLOAD SWAP1 PUSH1 0x20 ADD KECCAK256 DUP3 PUSH1 0x40 MLOAD PUSH1 0x20 ADD PUSH2 0x10F SWAP2 SWAP1 PUSH2 0x478 JUMP JUMPDEST PUSH1 0x40 MLOAD PUSH1 0x20 DUP2 DUP4 SUB SUB DUP2 MSTORE SWAP1 PUSH1 0x40 MSTORE DUP1 MLOAD SWAP1 PUSH1 0x20 ADD KECCAK256 SUB PUSH2 0x133 JUMPI PUSH0 SLOAD SWAP1 POP PUSH2 0x1ED JUMP JUMPDEST PUSH1 0x40 MLOAD PUSH1 0x20 ADD PUSH2 0x142 SWAP1 PUSH2 0x4D8 JUMP JUMPDEST PUSH1 0x40 MLOAD PUSH1 0x20 DUP2 DUP4 SUB SUB DUP2 MSTORE SWAP1 PUSH1 0x40 MSTORE DUP1 MLOAD SWAP1 PUSH1 0x20 ADD KECCAK256 DUP3 PUSH1 0x40 MLOAD PUSH1 0x20 ADD PUSH2 0x169 SWAP2 SWAP1 PUSH2 0x478 JUMP JUMPDEST PUSH1 0x40 MLOAD PUSH1 0x20 DUP2 DUP4 SUB SUB DUP2 MSTORE SWAP1 PUSH1 0x40 MSTORE DUP1 MLOAD SWAP1 PUSH1 0x20 ADD KECCAK256 SUB PUSH2 0x18E JUMPI PUSH1 0x1 SLOAD SWAP1 POP PUSH2 0x1ED JUMP JUMPDEST PUSH1 0x40 MLOAD PUSH1 0x20 ADD PUSH2 0x19D SWAP1 PUSH2 0x536 JUMP JUMPDEST PUSH1 0x40 MLOAD PUSH1 0x20 DUP2 DUP4 SUB SUB DUP2 MSTORE SWAP1 PUSH1 0x40 MSTORE DUP1 MLOAD SWAP1 PUSH1 0x20 ADD KECCAK256 DUP3 PUSH1 0x40 MLOAD PUSH1 0x20 ADD PUSH2 0x1C4 SWAP2 SWAP1 PUSH2 0x478 JUMP JUMPDEST PUSH1 0x40 MLOAD PUSH1 0x20 DUP2 DUP4 SUB SUB DUP2 MSTORE SWAP1 PUSH1 0x40 MSTORE DUP1 MLOAD SWAP1 PUSH1 0x20 ADD KECCAK256 SUB PUSH2 0x1E9 JUMPI PUSH1 0x2 SLOAD SWAP1 POP PUSH2 0x1ED JUMP JUMPDEST PUSH0 SWAP1 POP JUMPDEST SWAP2 SWAP1 POP JUMP JUMPDEST PUSH1 0x2 SLOAD DUP2 JUMP JUMPDEST PUSH1 0x1 SLOAD DUP2 JUMP JUMPDEST PUSH0 SLOAD DUP2 JUMP JUMPDEST PUSH0 PUSH1 0x40 MLOAD SWAP1 POP SWAP1 JUMP JUMPDEST PUSH0 DUP1 REVERT JUMPDEST PUSH0 DUP1 REVERT JUMPDEST PUSH0 DUP1 REVERT JUMPDEST PUSH0 DUP1 REVERT JUMPDEST PUSH0 PUSH1 0x1F NOT PUSH1 0x1F DUP4 ADD AND SWAP1 POP SWAP2 SWAP1 POP JUMP JUMPDEST PUSH32 0x4E487B7100000000000000000000000000000000000000000000000000000000 PUSH0 MSTORE PUSH1 0x41 PUSH1 0x4 MSTORE PUSH1 0x24 PUSH0 REVERT JUMPDEST PUSH2 0x262 DUP3 PUSH2 0x21C JUMP JUMPDEST DUP2 ADD DUP2 DUP2 LT PUSH8 0xFFFFFFFFFFFFFFFF DUP3 GT OR ISZERO PUSH2 0x281 JUMPI PUSH2 0x280 PUSH2 0x22C JUMP JUMPDEST JUMPDEST DUP1 PUSH1 0x40 MSTORE POP POP POP JUMP JUMPDEST PUSH0 PUSH2 0x293 PUSH2 0x203 JUMP JUMPDEST SWAP1 POP PUSH2 0x29F DUP3 DUP3 PUSH2 0x259 JUMP JUMPDEST SWAP2 SWAP1 POP JUMP JUMPDEST PUSH0 PUSH8 0xFFFFFFFFFFFFFFFF DUP3 GT ISZERO PUSH2 0x2BE JUMPI PUSH2 0x2BD PUSH2 0x22C JUMP JUMPDEST JUMPDEST PUSH2 0x2C7 DUP3 PUSH2 0x21C JUMP JUMPDEST SWAP1 POP PUSH1 0x20 DUP2 ADD SWAP1 POP SWAP2 SWAP1 POP JUMP JUMPDEST DUP3 DUP2 DUP4 CALLDATACOPY PUSH0 DUP4 DUP4 ADD MSTORE POP POP POP JUMP JUMPDEST PUSH0 PUSH2 0x2F4 PUSH2 0x2EF DUP5 PUSH2 0x2A4 JUMP JUMPDEST PUSH2 0x28A JUMP JUMPDEST SWAP1 POP DUP3 DUP2 MSTORE PUSH1 0x20 DUP2 ADD DUP5 DUP5 DUP5 ADD GT ISZERO PUSH2 0x310 JUMPI PUSH2 0x30F PUSH2 0x218 JUMP JUMPDEST JUMPDEST PUSH2 0x31B DUP5 DUP3 DUP6 PUSH2 0x2D4 JUMP JUMPDEST POP SWAP4 SWAP3 POP POP POP JUMP JUMPDEST PUSH0 DUP3 PUSH1 0x1F DUP4 ADD SLT PUSH2 0x337 JUMPI PUSH2 0x336 PUSH2 0x214 JUMP JUMPDEST JUMPDEST DUP2 CALLDATALOAD PUSH2 0x347 DUP5 DUP3 PUSH1 0x20 DUP7 ADD PUSH2 0x2E2 JUMP JUMPDEST SWAP2 POP POP SWAP3 SWAP2 POP POP JUMP JUMPDEST PUSH0 PUSH1 0x20 DUP3 DUP5 SUB SLT ISZERO PUSH2 0x365 JUMPI PUSH2 0x364 PUSH2 0x20C JUMP JUMPDEST JUMPDEST PUSH0 DUP3 ADD CALLDATALOAD PUSH8 0xFFFFFFFFFFFFFFFF DUP2 GT ISZERO PUSH2 0x382 JUMPI PUSH2 0x381 PUSH2 0x210 JUMP JUMPDEST JUMPDEST PUSH2 0x38E DUP5 DUP3 DUP6 ADD PUSH2 0x323 JUMP JUMPDEST SWAP2 POP POP SWAP3 SWAP2 POP POP JUMP JUMPDEST PUSH0 DUP2 SWAP1 POP SWAP2 SWAP1 POP JUMP JUMPDEST PUSH2 0x3A9 DUP2 PUSH2 0x397 JUMP JUMPDEST DUP3 MSTORE POP POP JUMP JUMPDEST PUSH0 PUSH1 0x20 DUP3 ADD SWAP1 POP PUSH2 0x3C2 PUSH0 DUP4 ADD DUP5 PUSH2 0x3A0 JUMP JUMPDEST SWAP3 SWAP2 POP POP JUMP JUMPDEST PUSH0 DUP2 SWAP1 POP SWAP3 SWAP2 POP POP JUMP JUMPDEST PUSH32 0x4D616E676F000000000000000000000000000000000000000000000000000000 PUSH0 DUP3 ADD MSTORE POP JUMP JUMPDEST PUSH0 PUSH2 0x406 PUSH1 0x5 DUP4 PUSH2 0x3C8 JUMP JUMPDEST SWAP2 POP PUSH2 0x411 DUP3 PUSH2 0x3D2 JUMP JUMPDEST PUSH1 0x5 DUP3 ADD SWAP1 POP SWAP2 SWAP1 POP JUMP JUMPDEST PUSH0 PUSH2 0x426 DUP3 PUSH2 0x3FA JUMP JUMPDEST SWAP2 POP DUP2 SWAP1 POP SWAP2 SWAP1 POP JUMP JUMPDEST PUSH0 DUP2 MLOAD SWAP1 POP SWAP2 SWAP1 POP JUMP JUMPDEST DUP3 DUP2 DUP4 MCOPY PUSH0 DUP4 DUP4 ADD MSTORE POP POP POP JUMP JUMPDEST PUSH0 PUSH2 0x452 DUP3 PUSH2 0x430 JUMP JUMPDEST PUSH2 0x45C DUP2 DUP6 PUSH2 0x3C8 JUMP JUMPDEST SWAP4 POP PUSH2 0x46C DUP2 DUP6 PUSH1 0x20 DUP7 ADD PUSH2 0x43A JUMP JUMPDEST DUP1 DUP5 ADD SWAP2 POP POP SWAP3 SWAP2 POP POP JUMP JUMPDEST PUSH0 PUSH2 0x483 DUP3 DUP5 PUSH2 0x448 JUMP JUMPDEST SWAP2 POP DUP2 SWAP1 POP SWAP3 SWAP2 POP POP JUMP JUMPDEST PUSH32 0x4F72616E67650000000000000000000000000000000000000000000000000000 PUSH0 DUP3 ADD MSTORE POP JUMP JUMPDEST PUSH0 PUSH2 0x4C2 PUSH1 0x6 DUP4 PUSH2 0x3C8 JUMP JUMPDEST SWAP2 POP PUSH2 0x4CD DUP3 PUSH2 0x48E JUMP JUMPDEST PUSH1 0x6 DUP3 ADD SWAP1 POP SWAP2 SWAP1 POP JUMP JUMPDEST PUSH0 PUSH2 0x4E2 DUP3 PUSH2 0x4B6 JUMP JUMPDEST SWAP2 POP DUP2 SWAP1 POP SWAP2 SWAP1 POP JUMP JUMPDEST PUSH32 0x4170706C65000000000000000000000000000000000000000000000000000000 PUSH0 DUP3 ADD MSTORE POP JUMP JUMPDEST PUSH0 PUSH2 0x520 PUSH1 0x5 DUP4 PUSH2 0x3C8 JUMP JUMPDEST SWAP2 POP PUSH2 0x52B DUP3 PUSH2 0x4EC JUMP JUMPDEST PUSH1 0x5 DUP3 ADD SWAP1 POP SWAP2 SWAP1 POP JUMP JUMPDEST PUSH0 PUSH2 0x540 DUP3 PUSH2 0x514 JUMP JUMPDEST SWAP2 POP DUP2 SWAP1 POP SWAP2 SWAP1 POP JUMP INVALID LOG2 PUSH5 0x6970667358 0x22 SLT KECCAK256 0xB8 DUP10 PUSH30 0x3F41B3D426665CF21BD342A3EAFFB7F87C85AD76CA90ACD0B71E8BE2FE64 PUSH20 0x6F6C634300081900330000000000000000000000 "
				},
				"gasEstimates": {
					"creation": {
						"codeDepositCost": "281600",
						"executionCost": "66633",
						"totalCost": "348233"
					},
					"external": {
						"applePrice()": "2425",
						"getPrice(string)": "infinite",
						"mangoPrice()": "2468",
						"orangePrice()": "2447"
					}
				},
				"methodIdentifiers": {
					"applePrice()": "5fb7b0d9",
					"getPrice(string)": "524f3889",
					"mangoPrice()": "cb0ec742",
					"orangePrice()": "b4e9f6f3"
				}
			},
			"storageLayout": {
				"storage": [
					{
						"astId": 4,
						"contract": "contracts/Base.sol:BaseStore",
						"label": "mangoPrice",
						"offset": 0,
						"slot": "0",
						"type": "t_uint256"
					},
					{
						"astId": 7,
						"contract": "contracts/Base.sol:BaseStore",
						"label": "orangePrice",
						"offset": 0,
						"slot": "1",
						"type": "t_uint256"
					},
					{
						"astId": 10,
						"contract": "contracts/Base.sol:BaseStore",
						"label": "applePrice",
						"offset": 0,
						"slot": "2",
						"type": "t_uint256"
					}
				],
				"types": {
					"t_uint256": {
						"encoding": "inplace",
						"label": "uint256",
						"numberOfBytes": "32"
					}
				}
			},
			"userdoc": {
				"kind": "user",
				"methods": {},
				"version": 1
			}
		}
	}
}